:1000000012C017C016C015C014C013C012C011C052
:1000100010C00FC00EC00DC00CC00BC00AC009C07C
:1000200008C007C006C011241FBECFEDCDBF10D041
:100030009FC0E6CF909580952FEF27BB88BB929A03
:10004000929898BB939A939818BA17BA18BA0895C9
:10005000CF92DF92FF920F931F93CF93DF9317BA44
:1000600018BA8CE381BB12BA949A959AFF2498EA45
:10007000C92E91E6D92E0FC0C801DCDFC601019759
:10008000F1F7000F111F2196CB30D105A9F7F3949A
:1000900085E0F81629F001E010E0C0E0D0E0ECCFF8
:1000A00080E090E0C7DF88E893E129E130E0F901E2
:1000B0003197F1F70197D9F78FEF9FEFBBDF88E812
:1000C00093E129E130E0F9013197F1F70197D9F790
:1000D00080E090E0AFDF88E893E129E130E0F901CA
:1000E0003197F1F70197D9F78FEF9FEFA3DF88E8FA
:1000F00093E129E130E0F9013197F1F70197D9F760
:1001000080E090E097DF88E893E129E130E0F901B1
:100110003197F1F70197D9F78FEF9FEF8BDF88E8E1
:1001200093E129E130E0F9013197F1F70197D9F72F
:1001300080E090E07FDF20E137E2C9E1D0E005C058
:10014000CE010197F1F72150304021153105C1F75B
:100150008AEA9AEA6FDF80E197E2FE013197F1F7D0
:100160000197D9F785E595E565DF20E137E2E8CF2E
:04017000F894FFCF31
:00000001FF
