:1000000012C017C016C015C014C013C012C011C052
:1000100010C00FC00EC00DC00CC00BC00AC009C07C
:1000200008C007C006C011241FBECFEDCDBF28D029
:1000300081C0E6CF909580952FEF27BB88BB929A21
:10004000929898BB939A939818BA17BA18BA0895C9
:1000500017BA18BA94988AEF90E0FC013197F1F73B
:1000600026B3949A95980197F1F746B3959A942FF1
:1000700080E030E0282B392B20953095C901089578
:10008000AF92BF92CF92DF92FF920F931F93CF93C5
:10009000DF9317BA18BA8CE381BB12BA949A959A77
:1000A000FF2428EAA22E21E6B22E13C0C801C2DF27
:1000B00098EAC92E91E6D92EC5010197F1F7000FF4
:1000C000111F2196CB30D10589F7F39482E0F81601
:1000D00029F001E010E0C0E0D0E0E8CF80E090E05F
:1000E000A9DFC6010197F1F78FEF9FEFA3DFC601EC
:1000F0000197F1F780E090E09DDFC6010197F1F7ED
:100100008FEF9FEF97DFC6010197F1F780E090E056
:1001100091DFC0E0D0E003C09BDFEC018BDFCE01BC
:1001200081719070892BC1F393DFC827D927CE0145
:0801300081DFFACFF894FFCF44
:00000001FF
