:1000000012C017C016C015C014C013C012C011C052
:1000100010C00FC00EC00DC00CC00BC00AC009C07C
:1000200008C007C006C011241FBECFEDCDBF28D029
:10003000AAC0E6CF909580952FEF27BB88BB929AF8
:10004000929898BB939A939818BA17BA18BA0895C9
:1000500017BA18BA94988AEF90E0FC013197F1F73B
:1000600026B3949A95980197F1F746B3959A942FF1
:1000700080E030E0282B392B20953095C901089578
:10008000A0E0B0E0E5E4F0E06AC017BA18BA8CE38B
:1000900081BB12BA949A959AFF2438EAA32E31E6CE
:1000A000B32E13C0C801C6DF28EAC22E21E6D22E25
:1000B000C5010197F1F7000F111F2196CB30D10533
:1000C00089F7F39482E0F81629F001E010E0C0E02F
:1000D000D0E0E8CF80E090E0ADDFC6010197F1F716
:1000E0008FEF9FEFA7DFC6010197F1F780E090E067
:1000F000A1DFC6010197F1F78FEF9FEF9BDFC601EC
:100100000197F1F780E090E095DFC0E0D0E003C018
:100110009FDFEC018FDFCE0193704197C9F7EE248A
:10012000FF2484ECC82E89E0D82E92DF8C01C60112
:100130000197F1F78DDF08231923C095D095C023CF
:10014000D123EC26FD26C70175DFE801EECF2F9203
:100150003F924F925F926F927F928F929F92AF9257
:10016000BF92CF92DF92EF92FF920F931F93CF93A4
:10017000DF93CDB7DEB7CA1BDB0B0FB6F894DEBF3B
:0A0180000FBECDBF0994F894FFCF25
:00000001FF
